S010000070726F6A656374732E73726563AA
S11300000C942A000C9456040C947F040C94A904B8
S11300100C9447000C9447000C9447000C94470040
S11300200C9447000C9447000C9447000C94470030
S11300300C9447000C9447000C9447000C94470020
S11300400C9447000C9447000C9447000C94470010
S11300500C94470011241FBECFE5D8E0DEBFCDBF0E
S113006011E0A0E6B0E0E4E3FDE002C005900D92EB
S1130070A635B107D9F721E0A6E5B1E001C01D928C
S1130080AC35B207E1F70E94D2040C9498060C94A4
S11300900000FF920F931F93CF93DF93CDB7DEB78A
S11300A02C970FB6F894DEBF0FBECDBF80919100A0
S11300B090919200A0919300B091940089879A87BF
S11300C0AB87BC878091950090919600A091970092
S11300D0B09198008D839E83AF83B88780919900F7
S11300E090919A00A0919B00B0919C0089839A837F
S11300F0AB83BC830E941503CE0109960E940203C0
S113010060E081E00E944204CE0105960E94020351
S113011060E082E00E944204CE0101960E94020344
S113012062E080E00E94420400E010E08AE0F82EE1
S11301300E94310290ED980F9A3068F4F09E90017D
S1130140F19E300D11248901080F111D005311096E
S11301500E940003EDCF8D33D1F462E081E00E9470
S11301604204C8010E94B30360E083E00E94420499
S1130170C8010E949A032C960FB6F894DEBF0FBEF6
S1130180CDBFDF91CF911F910F91FF9008958336DA
S113019079F6E3CFCF93DF93CDB7DEB762970FB68F
S11301A0F894DEBF0FBECDBF86E0EDE9F0E0DE01DE
S11301B01D9601900D928A95E1F786E0E3EAF0E05E
S11301C0DE01179601900D928A95E1F786E0E9EA3F
S11301D0F0E0DE01119601900D928A95E1F70E94FC
S11301E01503CE0107960E94020360E081E00E949D
S11301F04204CE010D960E94020360E082E00E9458
S11302004204CE0101960E94020362960FB6F8944E
S1130210DEBF0FBECDBFDF91CF910895CF93DF93A3
S1130220CDB7DEB762970FB6F894DEBF0FBECDBF71
S113023086E0EDE9F0E0DE011D9601900D928A95CD
S1130240E1F786E0E3EAF0E0DE01179601900D9213
S11302508A95E1F786E0E9EAF0E0DE011196019083
S11302600D928A95E1F70E941503CE010D960E9426
S1130270020360E081E00E944204CE0107960E94DE
S1130280020360E082E00E944204CE0101960E94D3
S1130290020360E083E00E9442048FEA90E00E943F
S11302A0020362960FB6F894DEBF0FBECDBFDF9196
S11302B0CF910895CF93DF93CDB7DEB7A0970FB654
S11302C0F894DEBF0FBECDBF8BE0EDEBF0E0DE01B6
S11302D0119601900D928A95E1F787E0E8ECF0E041
S11302E0DE015A9601900D928A95E1F787E0EFECD2
S11302F0F0E0DE01539601900D928A95E1F787E0D4
S1130300E6EDF0E0DE011C9601900D928A95E1F78E
S11303100E941503CE0101960E94020360E081E071
S11303200E944204CE014A960E94020360E082E0E9
S11303300E944204CE0143960E94020360E083E0DF
S11303400E944204CE010C960E9402030E943102D4
S1130350813319F40E940E01F9CF823319F40E94FB
S1130360CA00F4CF833319F40E944900EFCF8336D7
S113037069F70E941503A0960FB6F894DEBF0FBE6E
S1130380CDBFDF91CF910895CF93DF93CDB7DEB783
S1130390EC970FB6F894DEBF0FBECDBF81E1EDED53
S11303A0F0E0DE01529601900D928A95E1F78BE020
S11303B0EEEEF0E0DE01D29601900D928A95E1F71F
S11303C081E1E9EFF0E0DE01119601900D928A954A
S11303D0E1F78FE0EAE0F1E0DE01939601900D92FF
S11303E08A95E1F760E080E00E944204CE014296E3
S11303F00E94020360E081E00E944204CE01C296A2
S11304000E94020360E082E00E944204CE01019651
S11304100E94020360E083E00E944204CE018396BE
S11304200E9402030E9431028233E1F70E945A01C2
S1130430EC960FB6F894DEBF0FBECDBFDF91CF911F
S1130440089561E080E10E94B90561E081E10E94C4
S1130450B90561E082E10E94B90561E083E10C9491
S1130460B9059F92AF92BF92CF92DF92EF92FF9223
S11304700F931F93CF93DF93C9E1D1E099E2E92E63
S113048091E0F92E2EE4B22EF701A08060E08A2DCF
S11304900E94B90589E2C82E81E0D82E00E010E060
S11304A0F6019180892D0E943A06811109C0FE014E
S11304B0E00FF11FB080892D0E943A068823D9F3FA
S11304C00F5F1F4FF2E0CF0ED11C0430110541F72E
S11304D061E08A2D0E94B90582E0E80EF11C2496A1
S11304E0E1E0C932DE0781F68B2DDF91CF911F91B8
S11304F00F91FF90EF90DF90CF90BF90AF909F90BF
S11305000895EF92FF920F931F93CF93DF9391E39C
S1130510E92E91E0F92EC0E0D0E0082F10E0B801F8
S11305200C2E02C0759567950A94E2F76170F70185
S113053081917F010E94B9052196C430D10579F7D4
S1130540DF91CF911F910F91FF90EF90089561E09B
S11305508DE10E94B9058FEC97E00197F1F700C097
S1130560000060E08DE10E94B9058FEC97E00197EF
S1130570F1F700C000000895CF93C82F60E08CE12C
S11305800E94B9058C2F82958F700E9481020E946F
S1130590A7028C2F0E948102CF910C94A7022FE70F
S11305A088E391E0215080409040E1F700C00000D2
S11305B082E00E94BC0288E20E94BC028CE00E949D
S11305C0BC0281E00E94BC028FEC97E00197F1F736
S11305D000C0000086E00C94BC02CF93C82F61E0F9
S11305E08CE10E94B9058C2F82958F700E94810244
S11305F00E94A7028C2F0E948102CF910C94A70223
S11306000C94ED020F931F93CF938C01C0E0F8017B
S1130610EC0FF11D8081882321F00E94ED02CF5F51
S1130620F6CFCF911F910F91089581E00E94BC02F3
S11306308FEC97E00197F1F700C0000008954F9206
S11306405F926F927F92AF92BF92CF92DF92EF92BE
S1130650FF921F93CF93DF93CDB7DEB7E2970FB628
S1130660F894DEBF0FBECDBF6B017C01611571052F
S113067081059105B1F480E3E2960FB6F894DEBFEC
S11306800FBECDBFDF91CF911F91FF90EF90DF9010
S1130690CF90BF90AF907F906F905F904F900C94ED
S11306A0ED0297FF0BC0F094E094D094C094C11C69
S11306B0D11CE11CF11C8DE20E94ED0210E09AE0D5
S11306C0492E512C612C712CAA24A394B12CAC0E6C
S11306D0BD1EA10EB11CC701B601A30192010E9467
S11306E07906605DF50160831F5F69017A01C114B9
S11306F0D104E104F10441F7112341F0FE01E10FBB
S1130700F11D80810E94ED021150F6CFE2960FB6E2
S1130710F894DEBF0FBECDBFDF91CF911F91FF9044
S1130720EF90DF90CF90BF90AF907F906F905F90ED
S11307304F9008950F931F93CF93DF938C01CFE0D5
S1130740D0E0C8010C2E02C0969587950A94E2F772
S11307508170805D0E94ED02219798F7DF91CF911F
S11307601F910F910895FF920F931F93CF93DF93DF
S1130770CDB7DEB760970FB6F894DEBF0FBECDBF1E
S1130780FE0171962FE030E0AC01022E02C05695B6
S113079047950A94E2F74170429321503109A0F73A
S11307A08889880F9F85890F880F9E85890F880FF8
S11307B06D85860F6C85660F9B85690F660F9A851C
S11307C0690F660FF984F60E6885660F9F81690FBD
S11307D0660F9E81690F660F0D81060F6C81660F8F
S11307E09B81690F660F9A81690F660F9981162F95
S11307F0190F8A3020F0895C0E94ED0206C0682F30
S113080070E080E090E00E941F0389E08F1528F4D7
S113081087E38F0D0E94ED0206C06F2D70E080E02B
S113082090E00E941F030A3028F087E3800F0E94A3
S1130830ED0206C0602F70E080E090E00E941F038C
S11308401A3078F087E3810F60960FB6F894DEBF14
S11308500FBECDBFDF91CF911F910F91FF900C94EC
S1130860ED02612F70E080E090E060960FB6F8949E
S1130870DEBF0FBECDBFDF91CF911F910F91FF90CF
S11308800C941F03982F862F911102C080680BC00F
S1130890913011F4806C07C0923011F4806903C068
S11308A0933019F4806D0C94BC0208951F920F923A
S11308B00FB60F9211242F933F934F935F936F932F
S11308C07F938F939F93AF93BF93EF93FF93E091A5
S11308D05A01F0915B01309709F00995FF91EF916E
S11308E0BF91AF919F918F917F916F915F914F9144
S11308F03F912F910F900FBE0F901F9018957894F1
S11309001F920F920FB60F9211242F933F934F9380
S11309105F936F937F938F939F93AF93BF93EF9363
S1130920FF93E0915801F0915901309709F009952E
S1130930FF91EF91BF91AF919F918F917F916F91B3
S11309405F914F913F912F910F900FBE0F901F9089
S113095018951F920F920FB60F9211242F933F9365
S11309604F935F936F937F938F939F93AF93BF93B3
S1130970EF93FF93E0915601F0915701309709F0FE
S11309800995FF91EF91BF91AF919F918F917F91C5
S11309906F915F914F913F912F910F900FBE0F90E8
S11309A01F9018950E94DB040E94CF020E9421022E
S11309B00E94C401FDCFE5E3F1E040E081E090E076
S11309C05191342F369536953695242F2770513012
S11309D009F443C020F0523009F482C0C5C032305B
S11309E001F1333061F1313071F05AB3BC0102C00E
S11309F0660F771F2A95E2F79B01352F322B3ABBFE
S1130A003BB320953DC057B3BC0102C0660F771FAE
S1130A102A95E2F79B01352F322B37BB38B320954B
S1130A203EC054B3BC0102C0660F771F2A95E2F79B
S1130A309B01352F322B34BB35B320953FC051B3C6
S1130A40BC0102C0660F771F2A95E2F79B01352F80
S1130A50322B31BB32B3209541C0323011F13330E7
S1130A6081F1313079F05AB3BC0102C0660F771FAF
S1130A702A95E2F79B012095352F32233ABB3BB3ED
S1130A80232342C057B3BC0102C0660F771F2A95C7
S1130A90E2F79B012095352F322337BB38B323234C
S1130AA043C054B3BC0102C0660F771F2A95E2F716
S1130AB09B012095352F322334BB35B3232325BB2B
S1130AC053C051B3BC0102C0660F771F2A95E2F7E9
S1130AD09B012095352F322331BB32B3232343C0EE
S1130AE0323021F1333089F1313081F05AB3BC0115
S1130AF002C0660F771F2A95E2F79B01362F3095C7
S1130B0035233ABB3BB3232B2BBB2EC057B3BC01BD
S1130B1002C0660F771F2A95E2F79B01362F3095A6
S1130B20352337BB38B3232B28BB1EC054B3BC01B9
S1130B3002C0660F771F2A95E2F79B01362F309586
S1130B40352334BB35B3232BBACF51B3BC0102C018
S1130B50660F771F2A95E2F79B01362F30953523D0
S1130B6031BB32B3232B22BB4F5F403209F028CF75
S1130B700895982F96959695969587706130C1F54E
S1130B80913091F028F09230D9F0933029F1089502
S1130B904BB321E030E0B90102C0660F771F8A959C
S1130BA0E2F7CB01842B3AC048B321E030E0B9012D
S1130BB002C0660F771F8A95E2F7CB01842B3CC0F5
S1130BC045B321E030E0B90102C0660F771F8A9572
S1130BD0E2F7CB01842B3EC042B321E030E0B901FF
S1130BE002C0660F771F8A95E2F7CB01842B40C0C1
S1130BF061113FC09130A1F028F09230F9F09330A8
S1130C0059F108954BB321E030E0B90102C0660FF9
S1130C10771F8A95E2F7CB01809584238BBB0895D7
S1130C2048B321E030E0B90102C0660F771F8A950E
S1130C30E2F7CB018095842388BB089545B321E076
S1130C4030E0B90102C0660F771F8A95E2F7CB0145
S1130C508095842385BB089542B321E030E0B90137
S1130C6002C0660F771F8A95E2F7CB018095842333
S1130C7082BB0895282F27708695869586958130A6
S1130C8049F030F0823041F0833079F480B305C00C
S1130C9089B303C086B301C083B390E002C09595C5
S1130CA087952A95E2F78170089580E00895A1E27E
S1130CB01A2EAA1BBB1BFD010DC0AA1FBB1FEE1FD2
S1130CC0FF1FA217B307E407F50720F0A21BB30B1D
S1130CD0E40BF50B661F771F881F991F1A9469F799
S1130CE060957095809590959B01AC01BD01CF01F5
S1130CF00895052E97FB1EF400940E94900657FD5C
S1130D0007D00E94570607FC03D04EF40C949006BB
S1130D1050954095309521953F4F4F4F5F4F089523
S1130D2090958095709561957F4F8F4F9F4F089553
S1070D30F894FFCF61
S1130D3477656C636F6D6520696E206D79007072E0
S1130D446F6772616D6D657200616E6420737461A6
S1130D546E646172640063616C63756C61746F7258
S1130D6400443A2000483A2000423A2000484558BA
S1130D743A20004445433A200042494E3A20005068
S1130D847265737320282A2920413A4600696E70DB
S1130D947574207479706500312D204845580032EB
S1130DA42D2042494E00332D204445430073656C85
S1130DB46563742066726F6D206D656E7500312DE8
S1130DC47374616E6461726400322D70726F677241
S1130DD4616D6D6572206D617800202020696E70EC
S1130DE47574203635353335003738392F34353674
S1130DF42A3132332D63303D2B101411151216137E
S1130E041718191A1B01000000000000010000005B
S1130E1400000000000000000002020202000000C2
S1090E24000000000000C4
S9030000FC
