S010000070726F6A656374732E73726563AA
S11300000C942A000C943F000C943F000C943F0085
S11300100C943F000C943F000C943F000C943F0060
S11300200C943F000C943F000C943F000C943F0050
S11300300C943F000C943F000C943F000C943F0040
S11300400C943F000C943F000C943F000C943F0030
S11300500C943F0011241FBECFE5D8E0DEBFCDBF16
S113006010E0A0E6B0E0EAE7F2E002C005900D92ED
S1130070A036B107D9F70E94A0000C943B010C9460
S11300800000CF93C82F60E089E00E94A6006C2F87
S113009080E00E942B0161E088E00E94A6008FECC2
S11300A097E00197F1F700C0000060E088E00E944B
S11300B0A6008FEC97E00197F1F700C00000CF9104
S11300C00895CF93C82F60E089E00E94A6006C2FAA
S11300D080E00E942B0161E088E00E94A6008FEC82
S11300E097E00197F1F700C0000060E088E00E940B
S11300F0A6008FEC97E00197F1F700C00000CF91C4
S113010008952FE788E391E0215080409040E1F783
S113011000C0000088E30E9441008FE00E9441007B
S113012081E00E9441008FEC97E00197F1F700C055
S1130130000086E00E94410008950E946100089535
S11301400E94810081E40E949D00FFCF982F969524
S11301509695969587706130E1F5913099F028F085
S11301609230E9F0933041F108954BB321E030E04F
S1130170B90102C0660F771F8A95E2F7CB01842B81
S11301808BBB089548B321E030E0B90102C0660F8B
S1130190771F8A95E2F7CB01842B88BB089545B37A
S11301A021E030E0B90102C0660F771F8A95E2F7BB
S11301B0CB01842B85BB089542B321E030E0B90123
S11301C002C0660F771F8A95E2F7CB01842B82BBAE
S11301D0089561113FC09130A1F028F09230F9F0F8
S11301E0933059F108954BB321E030E0B90102C0D6
S11301F0660F771F8A95E2F7CB01809584238BBB2A
S1130200089548B321E030E0B90102C0660F771FBA
S11302108A95E2F7CB018095842388BB089545B382
S113022021E030E0B90102C0660F771F8A95E2F73A
S1130230CB018095842385BB089542B321E030E04F
S1130240B90102C0660F771F8A95E2F7CB0180954A
S1130250842382BB0895813041F028F0823039F044
S1130260833039F008956BBB089568BB089565BB6E
S10D0270089562BB0895F894FFCFCF
S9030000FC
